{
  "contractName": "Voting",
  "abi": [
    {
      "constant": true,
      "inputs": [
        {
          "internalType": "uint256",
          "name": "",
          "type": "uint256"
        }
      ],
      "name": "candidates",
      "outputs": [
        {
          "internalType": "uint256",
          "name": "id",
          "type": "uint256"
        },
        {
          "internalType": "string",
          "name": "name",
          "type": "string"
        },
        {
          "internalType": "string",
          "name": "party",
          "type": "string"
        },
        {
          "internalType": "uint256",
          "name": "voteCount",
          "type": "uint256"
        }
      ],
      "payable": false,
      "stateMutability": "view",
      "type": "function"
    },
    {
      "constant": true,
      "inputs": [],
      "name": "countCandidates",
      "outputs": [
        {
          "internalType": "uint256",
          "name": "",
          "type": "uint256"
        }
      ],
      "payable": false,
      "stateMutability": "view",
      "type": "function"
    },
    {
      "constant": true,
      "inputs": [
        {
          "internalType": "address",
          "name": "",
          "type": "address"
        }
      ],
      "name": "voters",
      "outputs": [
        {
          "internalType": "bool",
          "name": "",
          "type": "bool"
        }
      ],
      "payable": false,
      "stateMutability": "view",
      "type": "function"
    },
    {
      "constant": true,
      "inputs": [],
      "name": "votingEnd",
      "outputs": [
        {
          "internalType": "uint256",
          "name": "",
          "type": "uint256"
        }
      ],
      "payable": false,
      "stateMutability": "view",
      "type": "function"
    },
    {
      "constant": true,
      "inputs": [],
      "name": "votingStart",
      "outputs": [
        {
          "internalType": "uint256",
          "name": "",
          "type": "uint256"
        }
      ],
      "payable": false,
      "stateMutability": "view",
      "type": "function"
    },
    {
      "constant": false,
      "inputs": [
        {
          "internalType": "string",
          "name": "name",
          "type": "string"
        },
        {
          "internalType": "string",
          "name": "party",
          "type": "string"
        }
      ],
      "name": "addCandidate",
      "outputs": [
        {
          "internalType": "uint256",
          "name": "",
          "type": "uint256"
        }
      ],
      "payable": false,
      "stateMutability": "nonpayable",
      "type": "function"
    },
    {
      "constant": false,
      "inputs": [
        {
          "internalType": "uint256",
          "name": "candidateID",
          "type": "uint256"
        }
      ],
      "name": "vote",
      "outputs": [],
      "payable": false,
      "stateMutability": "nonpayable",
      "type": "function"
    },
    {
      "constant": true,
      "inputs": [],
      "name": "checkVote",
      "outputs": [
        {
          "internalType": "bool",
          "name": "",
          "type": "bool"
        }
      ],
      "payable": false,
      "stateMutability": "view",
      "type": "function"
    },
    {
      "constant": true,
      "inputs": [],
      "name": "getCountCandidates",
      "outputs": [
        {
          "internalType": "uint256",
          "name": "",
          "type": "uint256"
        }
      ],
      "payable": false,
      "stateMutability": "view",
      "type": "function"
    },
    {
      "constant": true,
      "inputs": [
        {
          "internalType": "uint256",
          "name": "candidateID",
          "type": "uint256"
        }
      ],
      "name": "getCandidate",
      "outputs": [
        {
          "internalType": "uint256",
          "name": "",
          "type": "uint256"
        },
        {
          "internalType": "string",
          "name": "",
          "type": "string"
        },
        {
          "internalType": "string",
          "name": "",
          "type": "string"
        },
        {
          "internalType": "uint256",
          "name": "",
          "type": "uint256"
        }
      ],
      "payable": false,
      "stateMutability": "view",
      "type": "function"
    },
    {
      "constant": false,
      "inputs": [
        {
          "internalType": "uint256",
          "name": "_startDate",
          "type": "uint256"
        },
        {
          "internalType": "uint256",
          "name": "_endDate",
          "type": "uint256"
        }
      ],
      "name": "setDates",
      "outputs": [],
      "payable": false,
      "stateMutability": "nonpayable",
      "type": "function"
    },
    {
      "constant": true,
      "inputs": [],
      "name": "getDates",
      "outputs": [
        {
          "internalType": "uint256",
          "name": "",
          "type": "uint256"
        },
        {
          "internalType": "uint256",
          "name": "",
          "type": "uint256"
        }
      ],
      "payable": false,
      "stateMutability": "view",
      "type": "function"
    }
  ],
  "bytecode": "0x608060405234801561001057600080fd5b506108d0806100206000396000f3fe608060405234801561001057600080fd5b50600436106100b45760003560e01c806335b8e8201161007157806335b8e8201461035157806385a386351461036e578063a3ec138d14610376578063b0417e98146103b0578063b86eda91146103b8578063dedf141e146103c0576100b4565b80630121b93f146100b95780630a84a217146100d8578063101158af146100f257806316441813146100fa57806326541b561461011b5780633477ee2e14610248575b600080fd5b6100d6600480360360208110156100cf57600080fd5b50356103e3565b005b6100e0610468565b60408051918252519081900360200190f35b6100e061046f565b610102610475565b6040805192835260208301919091528051918290030190f35b6100e06004803603604081101561013157600080fd5b81019060208101813564010000000081111561014c57600080fd5b82018360208201111561015e57600080fd5b8035906020019184600183028401116401000000008311171561018057600080fd5b91908080601f01602080910402602001604051908101604052809392919081815260200183838082843760009201919091525092959493602081019350359150506401000000008111156101d357600080fd5b8201836020820111156101e557600080fd5b8035906020019184600183028401116401000000008311171561020757600080fd5b91908080601f01602080910402602001604051908101604052809392919081815260200183838082843760009201919091525092955061047f945050505050565b6102656004803603602081101561025e57600080fd5b5035610509565b604051808581526020018060200180602001848152602001838103835286818151815260200191508051906020019080838360005b838110156102b257818101518382015260200161029a565b50505050905090810190601f1680156102df5780820380516001836020036101000a031916815260200191505b50838103825285518152855160209182019187019080838360005b838110156103125781810151838201526020016102fa565b50505050905090810190601f16801561033f5780820380516001836020036101000a031916815260200191505b50965050505050505060405180910390f35b6102656004803603602081101561036757600080fd5b5035610645565b6100e0610790565b61039c6004803603602081101561038c57600080fd5b50356001600160a01b0316610796565b604080519115158252519081900360200190f35b61039c6107ab565b6100e06107c1565b6100d6600480360360408110156103d657600080fd5b50803590602001356107c7565b42600454111580156103f6575042600354115b6103ff57600080fd5b60008111801561041157506002548111155b61041a57600080fd5b3360009081526001602052604090205460ff161561043757600080fd5b336000908152600160208181526040808420805460ff19168417905593835282905291902060030180549091019055565b6002545b90565b60045481565b6004546003549091565b60028054600190810191829055604080516080810182528381526020808201878152828401879052600060608401819052958652858252928520825181559251805192946104d593908501929190910190610803565b50604082015180516104f1916002840191602090910190610803565b50606091909101516003909101555060025492915050565b600060208181529181526040908190208054600180830180548551600293821615610100026000190190911692909204601f81018790048702830187019095528482529194929390928301828280156105a35780601f10610578576101008083540402835291602001916105a3565b820191906000526020600020905b81548152906001019060200180831161058657829003601f168201915b50505060028085018054604080516020601f60001961010060018716150201909416959095049283018590048502810185019091528181529596959450909250908301828280156106355780601f1061060a57610100808354040283529160200191610635565b820191906000526020600020905b81548152906001019060200180831161061857829003601f168201915b5050505050908060030154905084565b60008181526020818152604080832060038101546001808301805485516002938216156101000260001901909116839004601f8101889004880282018801909652858152606096879689968b969495019392918591908301828280156106ec5780601f106106c1576101008083540402835291602001916106ec565b820191906000526020600020905b8154815290600101906020018083116106cf57829003601f168201915b5050855460408051602060026001851615610100026000190190941693909304601f81018490048402820184019092528181529598508794509250840190508282801561077a5780601f1061074f5761010080835404028352916020019161077a565b820191906000526020600020905b81548152906001019060200180831161075d57829003601f168201915b5050505050915093509350935093509193509193565b60035481565b60016020526000908152604090205460ff1681565b3360009081526001602052604090205460ff1690565b60025481565b6003541580156107d75750600454155b80156107e757504282620f424001115b80156107f257508181115b6107fb57600080fd5b600355600455565b828054600181600116156101000203166002900490600052602060002090601f016020900481019282601f1061084457805160ff1916838001178555610871565b82800160010185558215610871579182015b82811115610871578251825591602001919060010190610856565b5061087d929150610881565b5090565b61046c91905b8082111561087d576000815560010161088756fea265627a7a72315820a47b97269abcafa88ead2f2a3f22a0b63bb941c5242ffa1e29a5a12810a08e0d64736f6c63430005100032",
  "source": "\r\npragma solidity ^0.5.16;\r\n\r\ncontract Voting {\r\n    struct Candidate {\r\n        uint id;\r\n        string name;\r\n        string party; \r\n        uint voteCount;\r\n    }\r\n\r\n    mapping (uint => Candidate) public candidates;\r\n    mapping (address => bool) public voters;\r\n\r\n    \r\n    uint public countCandidates;\r\n    uint256 public votingEnd;\r\n    uint256 public votingStart;\r\n\r\n\r\n    function addCandidate(string memory name, string memory party) public  returns(uint) {\r\n               countCandidates ++;\r\n               candidates[countCandidates] = Candidate(countCandidates, name, party, 0);\r\n               return countCandidates;\r\n    }\r\n   \r\n    function vote(uint candidateID) public {\r\n\r\n       require((votingStart <= now) && (votingEnd > now));\r\n   \r\n       require(candidateID > 0 && candidateID <= countCandidates);\r\n\r\n       //daha önce oy kullanmamıs olmalı\r\n       require(!voters[msg.sender]);\r\n              \r\n       voters[msg.sender] = true;\r\n       \r\n       candidates[candidateID].voteCount ++;      \r\n    }\r\n    \r\n    function checkVote() public view returns(bool){\r\n        return voters[msg.sender];\r\n    }\r\n       \r\n    function getCountCandidates() public view returns(uint) {\r\n        return countCandidates;\r\n    }\r\n\r\n    function getCandidate(uint candidateID) public view returns (uint,string memory, string memory,uint) {\r\n        return (candidateID,candidates[candidateID].name,candidates[candidateID].party,candidates[candidateID].voteCount);\r\n    }\r\n\r\n    function setDates(uint256 _startDate, uint256 _endDate) public{\r\n        require((votingEnd == 0) && (votingStart == 0) && (_startDate + 1000000 > now) && (_endDate > _startDate));\r\n        votingEnd = _endDate;\r\n        votingStart = _startDate;\r\n    }\r\n\r\n    function getDates() public view returns (uint256,uint256) {\r\n      return (votingStart,votingEnd);\r\n    }\r\n}\r\n",
  "sourcePath": "C:\\Users\\Dell\\OneDrive\\Desktop\\voting_hack\\hackthon-project\\Decentralized-Voting-System\\contracts\\Voting.sol",
  "compiler": {
    "name": "solc",
    "version": "0.5.16+commit.9c3226ce.Emscripten.clang"
  },
  "schemaVersion": "3.4.16",
  "updatedAt": "2025-08-20T16:30:32.406Z",
  "networkType": "ethereum",
  "devdoc": {
    "methods": {}
  },
  "userdoc": {
    "methods": {}
  }
}